:100000000C943A000C94EB020C94EB020C94EB026F
:100010000C94EB020C94EB020C94EB020C94EB02AC
:100020000C94EB020C94EB020C94EB020C94EB029C
:100030000C94EB020C94EB020C94EB020C94EB028C
:100040000C94EB020C94EB020C94EB020C94EB027C
:100050000C94EB020C94EB020C94EB020C94EB026C
:100060000C94EB020C94EB020100010A80010A01DE
:100070000E0005E411241FBECFEFD8E0DEBFCDBFD8
:10008000E8E6F0E040E017C0B591A59135912591E3
:10009000059107FD0CC095918591EF01F92FE82F8F
:1000A00005900D92A217B307D9F7FE0104C01D9267
:1000B000A217B307E1F7E437F40731F70E94800293
:0800C0000C94DB02F894FFCF61
:1000C800EF92FF920F931F93CF93DF9360910201FA
:1000D800709103016115710509F45BC0FB01A0E093
:1000E800B0E040E050E0C0E0D0E000811181228122
:1000F80033810817190771F4109729F013963C9368
:100108002E93129704C03093030120930201CF016C
:10011800029641C08017910748F4209729F0E8809B
:10012800F9800E151F0510F4AD01EF01DF0121154F
:10013800310511F0F901D9CF209759F10A811B81B6
:10014800FE0121913191281B390B2530310588F0AA
:1001580099838883DF01A80FB91F225031091196AE
:100168003C932E9312960C93129713961C93139705
:100178008D01C617D70729F40093020110930301D4
:1001880006C0DA0112960C93129713961C93CF01AE
:1001980002C080E090E0CDB7DEB7E6E00C94CC0278
:1001A800A2E0B0E0EAEDF0E00C94AE028C0185EE3E
:1001B80091E00115110509F455C0892B79F0023039
:1001C800110510F402E010E0C8010E9464000097D5
:1001D80009F04FC092E0E92EF12C04C085EEE82E1C
:1001E80081E0F82E8091040190910501209106018B
:1001F80030910701821B930B6701C00ED11E801737
:100208009107F0F4DA82C982CE0101960E94210298
:10021800009719F480E090E02CC0209104013091FF
:1002280005018217930721F0909307018093060137
:1002380029813A81820F931F9093050180930401CD
:10024800E0910601F0910701CF01E114F10419F0E2
:10025800029611830083CE0EDF1ED0920701C09252
:10026800060107C0009709F0ADCF7C0101E010E05E
:0A027800B9CF2296E8E00C94CA0208
:100282000F931F9326B5022F10E020E030E00617EF
:1002920017072807390740F58BB180628BB98BB1FC
:1002A20080648BB98BB180688BB985B1816085B967
:1002B2008BB188608BB98BB180618BB988B1886052
:1002C20088B988B1846088B988B1826088B988B1F8
:1002D200816088B985B1806285B985B1806185B94F
:1002E20085B1886085B927C08BB18F7D8BB98BB101
:1002F2008F7B8BB98BB18F778BB985B18E7F85B9A7
:100302008BB1877F8BB98BB18F7E8BB988B1877F99
:1003120088B988B18B7F88B988B18D7F88B988B157
:100322008E7F88B985B18F7D85B985B18F7E85B97C
:0C03320085B1877F85B91F910F91089558
:10033E00EF92FF920F931F93CF93DF937C01EB010C
:10034E008A0188819981AA81BB818035934CA10550
:10035E00B10541F4FA0180818F5F80831882198282
:10036E001A821B82F801808180FD03C00E94580210
:10037E0006C069E170E080E090E00E944101888152
:10038E009981AA81BB810196A11DB11D8883998394
:10039E00AA83BB83F8018081843049F481E0F701A0
:1003AE008083C8010E94E501CE010E94E501DF9124
:0C03BE00CF911F910F91FF90EF900895D8
:1003CA000097C9F1FC013297A0910201B091030193
:1003DA00109759F1408151819C01240F351FA217B2
:1003EA00B30779F412968D919C9113979383828324
:1003FA002D913C91CA01820F931F029691838083AB
:10040A0016C08D919C9111979C012E5F3F4F2A0F28
:10041A003B1FE217F30731F4840F951F02968D9361
:10042A009C930895B383A28302C013821282F0932D
:08043A000301E09302010895A3
:10044200FC01408151818091080190910901892B21
:1004520041F480910C0190910D01909309018093D8
:10046200080180910A0190910B01009719F48DB750
:100472009EB780972091080130910901281739070A
:1004820048F08CE090E0909301018093000180E0BD
:1004920090E00895821B930B8417950790F3420F07
:0E04A200531F5093090140930801C9010895AA
:1004B0008BB18F7D8BB98BB18F7B8BB98BB18F77E4
:1004C0008BB985B18E7F85B98BB1877F8BB98BB1A5
:1004D0008F7E8BB988B1877F88B988B18B7F88B9C7
:1004E00088B18D7F88B988B18E7F88B985B18F7DBD
:1004F00085B985B18F7E85B985B1877F85B9089526
:10050000CF93DF930F92CDB7DEB719820E94E60238
:1005100081E090E00E94D4008C0184E090E00E9491
:10052000D4007C01FC01108211821282138281E0CE
:10053000F801808389818111FDCFA801B701CE0127
:0805400001960E949F01F6CF15
:100548002F923F924F925F926F927F928F929F92DB
:10055800AF92BF92CF92DF92EF92FF920F931F93C9
:10056800CF93DF93CDB7DEB7CA1BDB0B0FB6F8947A
:08057800DEBF0FBECDBF0994E8
:100580002A88398848885F846E847D848C849B8423
:10059000AA84B984C884DF80EE80FD800C811B8131
:1005A000AA81B981CE0FD11D0FB6F894DEBF0FBE60
:0605B000CDBFED0108952E
:1005B600EC010E94F0020E94EF02CE010E94F102BD
:0605C600CE010E94ED02CF
:0A05CC0015BC82E085BD16BC089541
:0405D6000C94000081
:0405DA000E94620019
:0205DE0008957E
:0205E00008957C
:0205E20008957A
:0205E400000015
:0205E6000E0104
:00000001FF
