:100000000C9434000C94DF030C9404040C9404044A
:100010000C9404040C9404040C9404040C94040440
:100020000C9404040C9404040C9404040C94040430
:100030000C9404040C9404040C9404040C94040420
:100040000C9404040C9404040C9404040C94040410
:100050000C9404040C9404040C9404040C94040400
:100060000C9404040C94040411241FBECFEFD8E0B8
:10007000DEBFCDBF0E9440000C94C003F894FFCFB8
:10008000CF93DF9300D000D00F92CDB7DEB70E94A0
:1000900088030E94A3030E94B4031A8219821B8260
:1000A0001C821D82E12CF12C01E010E0113081F066
:1000B00038F0123009F45BC0133009F46DC0F6CF8C
:1000C0000E9411010E944D030E94DF0211E0EECF59
:1000D000BE016B5F7F4FCE0101960E940703D82EB1
:1000E00022E082130AC00F5F023021F40E946C03E9
:1000F0000E94DF02033009F412E0013081F481E054
:10010000D8120DC0F39499E09F1548F48B818F5F4E
:100110008B83863018F01B82F12C01C0F12C023049
:10012000E9F421E0D2121AC0E39489E08E1548F474
:100130008C818F5F8C83833018F01C82E12C01C08E
:10014000E12C8C81823050F093E09E1538F40E94AF
:10015000F9038E2D0E94F9031C82E12C6B818F2DF7
:100160000E94D5016C818E2D0E9446029FCF0E9475
:10017000DF022C814E2D6B818F2D0E94AC021A82E2
:1001800019822FEF89E698E1215080409040E1F7F5
:1001900000C0000013E08ACF89819A81892B59F52C
:1001A000E9E6F0E08081826080838DB381608DBB61
:1001B000789483B7817F866083BF83B7816083BF74
:1001C000889583B78E7F83BF0E94E903BE016D5F70
:1001D0007F4FCE0104960E942C038B81282F2F7015
:1001E000F22E82958F708B838C81982F9F70E92ED1
:1001F00082958F708C836B818F2D0E94D5016C81CD
:100200008E2D0E94460289819A8101969A83898364
:100210008C3D9F4F08F44ACF0E94DF021A82198258
:0202200045CFC8
:100222008BB180628BB92FEF84E39CE02150804038
:100232009040E1F700C000008BB18F7D8BB98BB18C
:1002420080648BB92FEF84E39CE021508040904082
:10025200E1F700C000008BB18F7B8BB98BB1806856
:100262008BB92FEF84E39CE0215080409040E1F76E
:1002720000C000008BB18F778BB985B1816085B9E1
:100282002FEF84E39CE0215080409040E1F700C0D2
:10029200000085B18E7F85B98BB188608BB92FEF55
:1002A20084E39CE0215080409040E1F700C00000D0
:1002B2008BB1877F8BB98BB180618BB92FEF84E3D0
:1002C2009CE0215080409040E1F700C000008BB1DB
:1002D2008F7E8BB988B1886088B92FEF84E39CE068
:1002E200215080409040E1F700C0000088B1877F34
:1002F20088B988B1846088B92FEF84E39CE02150EB
:1003020080409040E1F700C0000088B18B7F88B93F
:1003120088B1826088B92FEF84E39CE0215080404D
:100322009040E1F700C0000088B18D7F88B988B1A4
:10033200816088B92FEF84E39CE021508040904097
:10034200E1F700C0000088B18E7F88B985B1806274
:1003520085B92FEF84E39CE0215080409040E1F783
:1003620000C0000085B18F7D85B985B1806185B9F6
:100372002FEF84E39CE0215080409040E1F700C0E1
:10038200000085B18F7E85B985B1886085B92FEF70
:1003920084E39CE0215080409040E1F700C00000DF
:0803A20085B1877F85B908953C
:1003AA0080FF0BC096B5943620F498B1916098B945
:1003BA0007C098B19E7F98B903C098B19E7F98B93B
:1003CA0081FF0BC096B5943620F495B1906295B929
:1003DA0007C095B19F7D95B903C095B19F7D95B929
:1003EA0082FF0BC096B5943620F495B1906195B909
:1003FA0007C095B19F7E95B903C095B19F7E95B907
:10040A0083FF0BC086B5843620F485B1886085B930
:10041A0007C085B1877F85B903C085B1877F85B954
:10042A0060FF0BC086B5843620F488B1886088B92D
:10043A0007C088B1877F88B903C088B1877F88B928
:10044A0061FF0BC086B5843620F488B1846088B910
:10045A0007C088B18B7F88B903C088B18B7F88B900
:10046A0062FF0BC086B5843620F488B1826088B9F1
:10047A00089588B18D7F88B9089588B18D7F88B92C
:02048A000895D3
:10048C0080FF0CC09091B200943620F49BB1906820
:10049C009BB907C09BB19F779BB903C09BB19F775A
:1004AC009BB981FF0CC09091B200943620F495B1A9
:1004BC00916095B907C095B19E7F95B903C095B170
:1004CC009E7F95B982FF0BC096B5943620F49BB1F4
:1004DC0098609BB907C09BB1977F9BB903C09BB138
:1004EC00977F9BB983FF0CC08091B200843620F4B7
:1004FC008BB180618BB907C08BB18F7E8BB903C078
:10050C008BB18F7E8BB960FF0CC08091B2008436AA
:10051C0020F48BB180628BB907C08BB18F7D8BB906
:10052C0003C08BB18F7D8BB961FF0CC08091B20081
:10053C00843620F48BB180648BB908958BB18F7B9A
:0C054C008BB908958BB18F7B8BB908959B
:100558000F931F93CF93DF93D82F162FC42F022FFB
:100568000E94E9030E94F10380E1089FC00D112455
:1005780080E1189FD00D112480ED0E94CB0380E00C
:100588000E94CB0380E00E94CB038D2F0E94CB03F7
:100598008C2F0E94CB0384E00E94CB0385E00E944D
:1005A800CB0386E00E94CB030E940004DF91CF9129
:0605B8001F910F91089550
:1005BE008BB18F7D8BB98BB18F7B8BB98BB18F77D5
:1005CE008BB985B18E7F85B98BB1877F8BB98BB196
:1005DE008F7E8BB988B1877F88B988B18B7F88B9B8
:1005EE0088B18D7F88B988B18E7F88B985B18F7DAE
:1005FE0085B985B18F7E85B985B1877F85B9089517
:10060E00FC014A990BC0DB011C92808191810196FD
:10061E009183808310928500109284004A9B0AC0B9
:10062E008081918102978A3D9F4F20F41182108222
:10063E0081E00895808191818C3D9F4F20F0118241
:0A064E00108282E0089580E0089514
:100658000F931F93CF93DF93EC018B010E94F1035B
:1006680080ED0E94CB0380E00E94CB030E94F1033F
:1006780081ED0E94CB030E94D5030E94D503F801A7
:1006880080830E94D5038883DF91CF911F910F91BA
:020698000895C3
:10069A0088B1886088B988B1846088B988B1826075
:1006AA0088B988B1816088B985B1806285B985B118
:1006BA00806185B985B1886085B92FEF84E39CE0B4
:0E06CA00215080409040E1F700C000000895EC
:1006D8008BB180628BB98BB180648BB98BB1806828
:1006E8008BB985B1816085B98BB188608BB98BB1C5
:1006F80080618BB92FEF84E39CE0215080409040CB
:08070800E1F700C000000895B4
:100710001AB888EF8AB98AB18B7F8AB98BB18460A5
:100720008BB914B889E384B917B88FE087B980B75B
:10073000806880BFF89485B78F79982F9064806621
:0607400085BF95BF08957E
:1007460015BC82E085BD8093810016BC10928500A1
:1007560010928400E1EBF0E0108280831092B200E8
:020766000895F4
:10076800E1ECF0E0108280818861808383E38093EC
:08077800C4001092C5000895B1
:10078000EC010E9409040E940804CE010E940A04A0
:06079000CE010E940604E8
:100796008093BB0084E88093BC008091BC008823D2
:0407A600E4F70895D7
:1007AA0084EC8093BC008091BC008823E4F780919C
:0407BA00BB000895E3
:1007BE001F920F920FB60F9211240F900FBE0F9033
:0407CE001F901895CB
:1007D200E8EBF0E0108280E280831092BC00089582
:1007E20084EA8093BC008091BC008823E4F70895DA
:0E07F2009091C00095FFFCCF8093C600089543
:0808000084E98093BC00089517
:040808000C9400004C
:04080C000E943E0008
:02081000089549
:02081200089547
:02081400089545
:00000001FF
